:020000040800F2
:1000000000C00120BD7F0008314C00083D4C0008B5
:10001000454C00084D4C0008554C000800000000FD
:100020000000000000000000000000005D4C00081F
:10003000694C000800000000754C0008814C000865
:10004000058000080580000805800008058000087C
:10005000058000080580000805800008D14C0008D4
:10006000058000080580000805800008058000085C
:10007000058000080580000805800008058000084C
:10008000058000080580000805800008058000083C
:10009000058000080580000805800008058000082C
:1000A000058000080580000805800008058000081C
:1000B0000580000805800008F54C00080580000850
:1000C00005800008058000080580000805800008FC
:1000D00005800008058000080580000805800008EC
:1000E00005800008058000088D4C00080580000888
:1000F000058000080580000805800008E94C00081C
:1001000005800008058000080580000805800008BB
:1001100005800008058000080580000805800008AB
:10012000058000080580000805800008058000089B
:10013000058000080580000805800008058000088B
:10014000058000080580000805800008C14C0008F3
:10015000058000080580000805800008058000086B
:10016000058000080580000805800008058000085B
:10017000058000080580000805800008058000084B
:0801800005800008058000085D
:1001880010B5054C237833B9044B13B10448AFF3C9
:1001980000800123237010BDC0050020000000006E
:1001A800DC800008084B10B51BB108480849AFF3BC
:1001B80000800848036803B910BD074B002BFBD02B
:1001C800BDE81040184700BF00000000DC800008B0
:1001D800C4050020C00500200000000080B582B0E2
:1001E80000AF78607B685F4A934208D10120012103
:1001F80004F00EFA0120002104F00AFAAFE07B684F
:10020800B3F1804F08D10120012104F0E3F9012066
:10021800002104F0DFF9A2E07B68534A934208D139
:100228000220012104F0D6F90220002104F0D2F9BD
:1002380095E07B684D4A934208D10420012104F0DF
:10024800C9F90420002104F0C5F988E07B68484A10
:10025800934208D10820012104F0BCF908200021AC
:1002680004F0B8F97BE07B68424A934208D1102039
:10027800012104F0AFF91020002104F0ABF96EE081
:100288007B683D4A934208D12020012104F0A2F95D
:100298002020002104F09EF961E07B68374A9342F0
:1002A80008D10220012104F0B3F90220002104F052
:1002B800AFF954E07B68324A93420AD14FF4803058
:1002C800012104F0A5F94FF48030002104F0A0F9D1
:1002D80045E07B682B4A93420AD14FF40030012154
:1002E80004F096F94FF40030002104F091F936E05B
:1002F8007B68254A93420AD14FF48020012104F0FB
:1003080087F94FF48020002104F082F927E07B6808
:100318001E4A934208D14020012104F05BF9402095
:10032800002104F057F91AE07B68194A934208D172
:100338008020012104F04EF98020002104F04AF9C0
:100348000DE07B68134A934209D14FF48070012174
:1003580004F040F94FF48070002104F03BF90837AD
:10036800BD4680BD00000140000400400008004078
:10037800000C004000100040001400400004014040
:10038800004001400044014000480140001800407E
:10039800001C00400020004080B485B000AF7860A9
:1003A80039600023FB817B681B88FB817B68284AB6
:1003B800934213D07B68274A93420FD07B68B3F1EE
:1003C800804F0BD07B68244A934207D07B68234A2E
:1003D800934203D07B68224A934208D1FB8923F0D9
:1003E8007003FB813B685A88FB891343FB817B6858
:1003F8001C4A93420CD07B681B4A934208D0FB8965
:1004080023F44073FB813B681A89FB891343FB8102
:100418007B68FA891A803B685A687B68DA623B68AD
:100428001A887B681A857B68094A934203D07B68DF
:10043800084A934204D13B689B7A9AB27B681A8631
:100448007B6801229A821437BD465DF8047B7047A9
:100458000000014000040140000400400008004082
:10046800000C0040001000400014004080B483B02D
:1004780000AF78607B684FF0FF325A607B680022DB
:100488001A807B6800221A817B6800225A807B6868
:1004980000229A720C37BD465DF8047B704700BF96
:1004A80080B483B000AF78600B467B8013463B80F6
:1004B8007B687A881A857B683A889A820C37BD46A9
:1004C8005DF8047B704700BF80B485B000AF7860EA
:1004D8000B467B800023FB817B681B88FB81FB89A3
:1004E80023F07003FB81FA897B881343FB817B68C7
:1004F800FA891A801437BD465DF8047B704700BF3F
:1005080080B483B000AF786039607B683A685A621B
:100518000C37BD465DF8047B704700BF80B483B0DC
:1005280000AF786039607B683A68DA620C37BD469C
:100538005DF8047B704700BF80B483B000AF78607B
:100548007B685B6A18460C37BD465DF8047B7047CC
:1005580080B483B000AF78607B681B8D9BB218466F
:100568000C37BD465DF8047B704700BF80B483B08C
:1005780000AF78600B46FB70FB78002B08D07B68D7
:100588001B889BB243F002039AB27B681A8007E08B
:100598007B681B889BB223F002039AB27B681A809F
:1005A8000C37BD465DF8047B704700BF80B483B04C
:1005B80000AF78600B467B807B88002B08D07B6877
:1005C8001B889BB243F004039AB27B681A8007E049
:1005D8007B681B889BB223F004039AB27B681A805D
:1005E8000C37BD465DF8047B704700BF80B483B00C
:1005F80000AF78600B46FB70FB78002B08D07B6857
:100608001B889BB243F080039AB27B681A8007E08C
:100618007B681B889BB223F080039AB27B681A80A0
:100628000C37BD465DF8047B704700BF80B483B0CB
:1006380000AF78600B467B807B681B889BB223F0F9
:1006480008039AB27B681A807B681B889AB27B88F9
:1006580013439AB27B681A800C37BD465DF8047B59
:10066800704700BF80B483B000AF78600B467B80D2
:100678007B681B889BB223F440739AB27B681A800C
:100688007B681B889AB27B8813439AB27B681A806E
:100698000C37BD465DF8047B704700BF80B483B05B
:1006A80000AF78600B46FB70FB78002B08D07B68A6
:1006B8001B889BB243F001039AB27B681A8007E05B
:1006C8007B681B889BB223F001039AB27B681A806F
:1006D8000C37BD465DF8047B704700BF80B485B019
:1006E80000AF7860396000237B810023FB81002301
:1006F800BB817B681B8C9BB223F001039AB27B6899
:100708001A847B681B8CFB817B689B88BB817B6818
:100718001B8B7B817B8923F070037B817B8923F092
:1007280003037B813B681A887B8913437B81FB89A0
:1007380023F00203FB813B689A89FB891343FB8101
:100748003B685A88FB891343FB817B681E4A9342A6
:1007580003D07B681D4A934223D1FB8923F0080309
:10076800FB813B68DA89FB891343FB81FB8923F012
:100778000403FB813B689A88FB891343FB81BB898F
:1007880023F48073BB81BB8923F40073BB813B686E
:100798001A8ABB891343BB813B685A8ABB891343B6
:1007A800BB817B68BA899A807B687A891A833B689F
:1007B8009A687B685A637B68FA891A841437BD463D
:1007C8005DF8047B704700BF000001400004014051
:1007D80080B485B000AF7860396000237B81002346
:1007E800FB810023BB817B681B8C9BB223F0100329
:1007F8009AB27B681A847B681B8CFB817B689B8818
:10080800BB817B681B8B7B817B8923F4E0437B81E5
:100818007B8923F440737B813B681B881B029AB257
:100828007B8913437B81FB8923F02003FB813B6891
:100838009B891B019AB2FB891343FB813B685B8848
:100848001B019AB2FB891343FB817B68224A9342BE
:1008580003D07B68214A93422BD1FB8923F0800384
:10086800FB813B68DB891B019AB2FB891343FB813F
:10087800FB8923F04003FB813B689B881B019AB2EC
:10088800FB891343FB81BB8923F48063BB81BB894C
:1008980023F40063BB813B681B8A9B009AB2BB8927
:1008A8001343BB813B685B8A9B009AB2BB891343A5
:1008B800BB817B68BA899A807B687A891A833B688E
:1008C8009A687B689A637B68FA891A841437BD46EC
:1008D8005DF8047B704700BF000001400004014040
:1008E80080B485B000AF7860396000237B81002335
:1008F800FB810023BB817B681B8C9BB223F4807334
:100908009AB27B681A847B681B8CFB817B689B8806
:10091800BB817B689B8B7B817B8923F070037B8108
:100928007B8923F003037B813B681A887B89134307
:100938007B81FB8923F40073FB813B689B891B0245
:100948009AB2FB891343FB813B685B881B029AB20E
:10095800FB891343FB817B68224A934203D07B685F
:10096800214A93422BD1FB8923F40063FB813B6826
:10097800DB891B029AB2FB891343FB81FB8923F4B1
:100988008063FB813B689B881B029AB2FB891343F7
:10099800FB81BB8923F48053BB81BB8923F40053BB
:1009A800BB813B681B8A1B019AB2BB891343BB817D
:1009B8003B685B8A1B019AB2BB891343BB817B6886
:1009C800BA899A807B687A899A833B689A687B6837
:1009D800DA637B68FA891A841437BD465DF8047BAC
:1009E800704700BF000001400004014080B485B09A
:1009F80000AF786039600023BB8100237B8100232E
:100A0800FB817B681B8C9BB223F480539AB27B6872
:100A18001A847B681B8C7B817B689B88FB817B6845
:100A28009B8BBB81BB8923F4E043BB81BB8923F447
:100A38004073BB813B681B881B029AB2BB89134376
:100A4800BB817B8923F400537B813B689B891B0313
:100A58009AB27B8913437B813B685B881B039AB2FC
:100A68007B8913437B817B68114A934203D07B685F
:100A7800104A93420AD1FB8923F48043FB813B68E7
:100A88001B8A9B019AB2FB891343FB817B68FA8915
:100A98009A807B68BA899A833B689A687B681A64EB
:100AA8007B687A891A841437BD465DF8047B7047E1
:100AB800000001400004014080B483B000AF7860BA
:100AC8007B6800221A807B6800225A807B6800229B
:100AD8009A807B6800229A607B6800229A817B68F2
:100AE8000022DA817B6800221A827B6800225A82FF
:100AF8000C37BD465DF8047B704700BF80B485B0F5
:100B080000AF78600B467B8013463B800023FB6078
:100B180000237B817B68FB60FB681833FB607B8864
:100B2800012202FA03F37B817B681B8C9AB27B89D2
:100B3800DB439BB213409AB27B681A847B88002BF4
:100B480002D07B88082B14D17B885B089BB21A469D
:100B5800FB681344FB60FA68FB6819684FF68F73EB
:100B68000B401360FB68FA6811683A880A431A60F8
:100B780017E07B88043B9BB25B089BB21A46FB6874
:100B88001344FB60FA68FB68196848F6FF730B406A
:100B98001360FB68FA6812683988090289B20A4347
:100BA8001A601437BD465DF8047B704780B483B083
:100BB80000AF786039607B683A685A630C37BD4685
:100BC8005DF8047B704700BF80B483B000AF7860E5
:100BD80039607B683A689A630C37BD465DF8047BD8
:100BE800704700BF80B483B000AF786039607B681D
:100BF8003A68DA630C37BD465DF8047B704700BF7E
:100C080080B483B000AF786039607B683A681A6452
:100C18000C37BD465DF8047B704700BF80B485B0D3
:100C280000AF78600B467B800023FB817B681B8BC1
:100C3800FB81FB8923F07003FB81FA897B881343CE
:100C4800FB817B68FA891A831437BD465DF8047BFB
:100C5800704700BF80B485B000AF78600B467B80DA
:100C68000023FB817B681B8BFB81FB8923F4E0431A
:100C7800FB817B881B029AB2FB891343FB817B684B
:100C8800FA891A831437BD465DF8047B704700BFA4
:100C980080B485B000AF78600B467B800023FB8171
:100CA8007B689B8BFB81FB8923F07003FB81FA89AE
:100CB8007B881343FB817B68FA899A831437BD4686
:100CC8005DF8047B704700BF80B485B000AF7860E2
:100CD8000B467B800023FB817B689B8BFB81FB8918
:100CE80023F4E043FB817B881B029AB2FB89134300
:100CF800FB817B68FA899A831437BD465DF8047BCB
:100D0800704700BF80B485B000AF78600B467B8029
:100D18000023FB817B681B8BFB81FB8923F0080385
:100D2800FB81FA897B881343FB817B68FA891A83E4
:100D38001437BD465DF8047B704700BF80B485B0AA
:100D480000AF78600B467B800023FB817B681B8BA0
:100D5800FB81FB8923F40063FB817B881B029AB229
:100D6800FB891343FB817B68FA891A831437BD46D4
:100D78005DF8047B704700BF80B485B000AF786031
:100D88000B467B800023FB817B689B8BFB81FB8967
:100D980023F00803FB81FA897B881343FB817B6876
:100DA800FA899A831437BD465DF8047B704700BF03
:100DB80080B485B000AF78600B467B800023FB8150
:100DC8007B689B8BFB81FB8923F40063FB817B8819
:100DD8001B029AB2FB891343FB817B68FA899A83C9
:100DE8001437BD465DF8047B704700BF80B485B0FA
:100DF80000AF78600B467B800023FB817B681B8BF0
:100E0800FB81FB8923F00403FB81FA897B88134368
:100E1800FB817B68FA891A831437BD465DF8047B29
:100E2800704700BF80B485B000AF78600B467B8008
:100E38000023FB817B681B8BFB81FB8923F4806388
:100E4800FB817B881B029AB2FB891343FB817B6879
:100E5800FA891A831437BD465DF8047B704700BFD2
:100E680080B485B000AF78600B467B800023FB819F
:100E78007B689B8BFB81FB8923F00403FB81FA8948
:100E88007B881343FB817B68FA899A831437BD46B4
:100E98005DF8047B704700BF80B485B000AF786010
:100EA8000B467B800023FB817B689B8BFB81FB8946
:100EB80023F48063FB817B881B029AB2FB8913436E
:100EC800FB817B68FA899A831437BD465DF8047BF9
:100ED800704700BF80B485B000AF78600B467B8058
:100EE8000023FB817B681B8BFB81FB8923F080033C
:100EF800FB81FA897B881343FB817B68FA891A8313
:100F08001437BD465DF8047B704700BF80B485B0D8
:100F180000AF78600B467B800023FB817B681B8BCE
:100F2800FB81FB89C3F30E03FB817B881B029AB20A
:100F3800FB891343FB817B68FA891A831437BD4602
:100F48005DF8047B704700BF80B485B000AF78605F
:100F58000B467B800023FB817B689B8BFB81FB8995
:100F680023F08003FB81FA897B881343FB817B682C
:100F7800FA899A831437BD465DF8047B704700BF31
:100F880080B485B000AF78600B467B800023FB817E
:100F98007B689B8BFB81FB89C3F30E03FB817B88FA
:100FA8001B029AB2FB891343FB817B68FA899A83F7
:100FB8001437BD465DF8047B704700BF80B485B028
:100FC80000AF78600B467B800023FB817B681B8C1D
:100FD800FB81FB8923F00203FB81FA897B88134399
:100FE800FB817B68FA891A841437BD465DF8047B57
:100FF800704700BF80B485B000AF78600B467B8037
:101008000023FB817B681B8CFB81FB8923F0080391
:10101800FB81FA897B881343FB817B68FA891A84F0
:101028001437BD465DF8047B704700BF80B485B0B7
:1010380000AF78600B467B800023FB817B681B8CAC
:10104800FB81FB8923F02003FB817B881B019AB27B
:10105800FB891343FB817B68FA891A841437BD46E0
:101068005DF8047B704700BF80B485B000AF78603E
:101078000B467B800023FB817B681B8CFB81FB89F3
:1010880023F08003FB817B881B019AB2FB89134301
:10109800FB817B68FA891A841437BD465DF8047BA6
:1010A800704700BF80B485B000AF78600B467B8086
:1010B8000023FB817B681B8CFB81FB8923F4007375
:1010C800FB817B881B029AB2FB891343FB817B68F7
:1010D800FA891A841437BD465DF8047B704700BF4F
:1010E80080B485B000AF78600B467B800023FB811D
:1010F8007B681B8CFB81FB8923F40063FB817B8865
:101108001B029AB2FB891343FB817B68FA891A8414
:101118001437BD465DF8047B704700BF80B485B0C6
:1011280000AF78600B467B800023FB817B681B8CBB
:10113800FB81FB8923F40053FB817B881B039AB254
:10114800FB891343FB817B68FA891A841437BD46EF
:101158005DF8047B704700BF80B485B000AF78604D
:101168000B467B8013463B800023FB817B88012252
:1011780002FA03F3FB817B681B8C9AB2FB89DB4381
:101188009BB213409AB27B681A847B681B8C9AB214
:1011980039887B8801FA03F39BB213439AB27B68C0
:1011A8001A841437BD465DF8047B704780B485B057
:1011B80000AF78600B467B8013463B800023FB81A1
:1011C8007B88042202FA03F3FB817B681B8C9AB2AA
:1011D800FB89DB439BB213409AB27B681A847B6815
:1011E8001B8C9AB239887B8801FA03F39BB21343AC
:1011F8009AB27B681A841437BD465DF8047B704741
:1012080080B582B000AF786039603B681B88002BDE
:101218000FD13B6859883B689A883B681B89786876
:1012280000F0B0FC3B68DB887868194600F0E0F80D
:1012380036E03B681B88042B0FD13B6859883B6814
:101248009A883B681B89786800F0DEFC3B68DB887D
:101258007868194600F0E8F822E03B681B88082BFC
:101268000FD13B6859883B689A883B681B89786826
:1012780000F016FD3B68DB887868194600F0F2F844
:101288000EE03B6859883B689A883B681B897868F8
:1012980000F04EFD3B68DB887868194600F0FEF8E0
:1012A8000837BD4680BD00BF80B483B000AF78600A
:1012B8007B6800221A807B6800225A807B680122A2
:1012C8009A807B680022DA807B6800221A810C37BA
:1012D800BD465DF8047B704780B584B000AF786088
:1012E80039600023FB810123BB813B685B88002BAD
:1012F80002D10223FB8101E00023FB813B689B882C
:10130800012B02D10223BB8101E00123BB813B6891
:101318001B88002B1CD13B6859883B689A883B681E
:101328001B89786800F02EFC3B68DB8878681946D2
:1013380000F05EF83B681B89F989BA89786800F083
:1013480063FC3B68DB887868194600F06DF81BE0A1
:101358003B6859883B689A883B681B89786800F025
:1013680053FC3B68DB887868194600F05DF83B68F9
:101378001B89F989BA89786800F004FC3B68DB8826
:101388007868194600F034F81037BD4680BD00BFB4
:1013980080B483B000AF78607B685B6B18460C370D
:1013A800BD465DF8047B704780B483B000AF7860B9
:1013B8007B689B6B18460C37BD465DF8047B70470D
:1013C80080B483B000AF78607B68DB6B18460C375D
:1013D800BD465DF8047B704780B483B000AF786089
:1013E8007B681B6C18460C37BD465DF8047B70475C
:1013F80080B483B000AF78600B467B807B681B8B22
:101408009BB223F00C039AB27B681A837B681B8B10
:101418009AB27B8813439AB27B681A830C37BD460D
:101428005DF8047B704700BF80B483B000AF78607C
:101438000B467B807B681B8B9BB223F440639AB27C
:101448007B681A837B681B8B9AB27B881B029BB2D2
:1014580013439AB27B681A830C37BD465DF8047B48
:10146800704700BF80B483B000AF78600B467B80C4
:101478007B689B8B9BB223F00C039AB27B689A83A0
:101488007B689B8B9AB27B8813439AB27B689A835A
:101498000C37BD465DF8047B704700BF80B483B04D
:1014A80000AF78600B467B807B689B8B9BB223F4F4
:1014B80040639AB27B689A837B689B8B9AB27B88DD
:1014C8001B029BB213439AB27B689A830C37BD46C2
:1014D8005DF8047B704700BF80B483B000AF7860CC
:1014E80039603B681A883B685B8813439AB23B684B
:1014F8009B8813439AB23B68DB8813439AB23B68D4
:101508001B8913439AB23B685B8913439AB23B68C1
:101518009B8913439AB27B68A3F844200C37BD46D5
:101528005DF8047B704700BF80B483B000AF78607B
:101538007B6800221A807B6800225A807B68002220
:101548009A807B680022DA807B6800221A817B6897
:1015580000225A817B6800229A810C37BD465DF8CB
:10156800047B704780B483B000AF78600B46FB7093
:10157800FB78002B0CD07B68B3F844309BB26FEA41
:1015880043436FEA53439AB27B68A3F8442009E0C7
:101598007B68B3F844309BB2C3F30E039AB27B68FE
:1015A800A3F844200C37BD465DF8047B704700BFA4
:1015B80080B483B000AF78600B46FB70FB78002BDB
:1015C80008D07B689B889BB243F004039AB27B687F
:1015D8009A8007E07B689B889BB223F004039AB249
:1015E8007B689A800C37BD465DF8047B704700BF66
:1015F80080B483B000AF78600B46FB70FB78002B9B
:1016080008D07B689B889BB243F001039AB27B6841
:101618009A8007E07B689B889BB223F001039AB20B
:101628007B689A800C37BD465DF8047B704700BF25
:1016380080B483B000AF78600B467B8013467B7024
:101648007B78002B08D07B689B899AB27B881343F0
:101658009AB27B689A8109E07B689B899AB27B88F9
:10166800DB439BB213409AB27B689A810C37BD4624
:101678005DF8047B704700BF80B483B000AF78602A
:101688000B467B807B687A889A820C37BD465DF86A
:10169800047B704780B485B000AF78600B467B80D0
:1016A8000023FB737B681B8A9AB27B8813409BB22A
:1016B800002B02D00123FB7301E00023FB73FB7BAB
:1016C80018461437BD465DF8047B704780B483B074
:1016D80000AF78600B467B807B88DB439AB27B68DF
:1016E8001A820C37BD465DF8047B704780B485B01C
:1016F80000AF78600B467B800023FB730023BB811F
:1017080000237B817B681B8A9AB27B881340BB814C
:101718007B689B899AB27B8813407B81BB89002BAD
:1017280005D07B89002B02D00123FB7301E0002345
:10173800FB73FB7B18461437BD465DF8047B704786
:1017480080B483B000AF78600B467B807B88DB4336
:101758009AB27B681A820C37BD465DF8047B7047E5
:1017680080B483B000AF78600B467B8013463B8023
:101778007A883B8813439AB27B68A3F848200C37D1
:10178800BD465DF8047B704780B483B000AF7860D5
:101798000B467B8013467B707B78002B08D07B68D8
:1017A8009B899AB27B8813439AB27B689A8109E035
:1017B8007B689B899AB27B88DB439BB213409AB2C1
:1017C8007B689A810C37BD465DF8047B704700BF83
:1017D80080B483B000AF78600B46FB70FB78002BB9
:1017E80008D07B689B889BB243F008039AB27B6859
:1017F8009A8007E07B689B889BB223F008039AB223
:101808007B689A800C37BD465DF8047B704700BF43
:1018180080B483B000AF78607B681B899BB223F0EB
:1018280007039AB27B681A810C37BD465DF8047BC2
:10183800704700BF80B582B000AF78600B467B80F0
:101848007B887868194600F087F87B681B899BB20B
:1018580043F007039AB27B681A810837BD4680BDFA
:1018680080B584B000AFF860084611461A460346B2
:101878007B810B463B811346FB807B89602B07D11C
:101888003A89FB88F8681146012200F0BDF906E0A4
:101898003A89FB88F8681146012200F073F97B89C0
:1018A800F868194600F058F8FB681B899BB243F0AA
:1018B80007039AB2FB681A811037BD4680BD00BF86
:1018C80080B586B000AFF860084611461A46034650
:1018D8007B810B463B811346FB800023FB82798981
:1018E8003A89FB88F86800F0A7F8FB681B89FB8237
:1018F800FB8A23F00703FB82FB8A43F00703FB8282
:10190800FB8A23F07003FB82FB8A43F07003FB829F
:10191800FB68FA8A1A811837BD4680BD80B584B045
:1019280000AFF860084611461A4603467B810B460D
:101938003B811346FB8079893A89FB88F86800F077
:101948007BF8FB681B899BB243F480439AB2FB681F
:101958001A811037BD4680BD80B485B000AF78606D
:101968000B467B800023FB817B681B89FB81FB89FD
:1019780023F07003FB81FA897B881343FB817B6822
:10198800FA891A811437BD465DF8047B704700BF99
:1019980080B483B000AF78600B467B807B689B88FF
:1019A8009BB223F070039AB27B689A807B689B880D
:1019B8009AB27B8813439AB27B689A800C37BD46EB
:1019C8005DF8047B704700BF80B483B000AF7860D7
:1019D8000B467B807B681B899BB223F007039AB276
:1019E8007B681A817B681B899AB27B8813439AB2F9
:1019F8007B681A810C37BD465DF8047B704700BFD1
:101A080080B483B000AF78600B467B807B681B890D
:101A18009BB223F080039AB27B681A817B681B898A
:101A28009AB27B8813439AB27B681A810C37BD46F9
:101A38005DF8047B704700BF80B487B000AFF860E2
:101A4800084611461A4603467B810B463B811346DE
:101A5800FB800023FB82FB681B89FB82FB8ADBB2CD
:101A6800FB82FB881B029AB23B8913439AB27B899B
:101A780013439AB2FB8A1343FB82FB68FA8A1A81E2
:101A88001C37BD465DF8047B704700BF80B487B043
:101A980000AFF860084611461A4603467B810B469C
:101AA8003B811346FB800023FB820023BB8200237B
:101AB8007B82FB681B89FB82FB681B8BBB82FB68F4
:101AC8001B8C7B82FB8A23F00703FB82FA8A7B89C3
:101AD8001343FB82BB8A23F4407323F00303BB82C6
:101AE800BB8A43F4807343F00103BB827B8A23F0F3
:101AF80022037B82FB881B019AB23B8913439AB26B
:101B08007B8A13437B82FB68FA8A1A81FB68BA8A4C
:101B18001A83FB687A8A1A841C37BD465DF8047BF1
:101B2800704700BF80B483B000AF78600B46FB708D
:101B3800FB78002B08D07B689B889BB243F080031E
:101B48009AB27B689A8007E07B689B889BB223F0F7
:101B580080039AB27B689A800C37BD465DF8047B97
:101B6800704700BF80B483B000AF78600B467B80BD
:101B78007B687A88A3F850200C37BD465DF8047B53
:101B8800704700BF80B487B000AFF86008461146C0
:101B98001A4603467B810B463B811346FB80002394
:101BA800FB820023BB82FB681B8C9BB223F00103E2
:101BB8009AB2FB681A84FB681B8BFB82FB681B8C40
:101BC800BB82FB8A23F0F303FB82FB881B019AB2DA
:101BD8003B8913439AB2FB8A1343FB82BB8A23F0E7
:101BE8000A03BB827A89BB8A13439BB243F0010381
:101BF800BB82FB68FA8A1A83FB68BA8A1A841C3784
:101C0800BD465DF8047B704780B487B000AFF860CC
:101C1800084611461A4603467B810B463B8113460C
:101C2800FB800023FB820023BB8200237B82FB68AE
:101C38001B8C9BB223F010039AB2FB681A84FB68D2
:101C48001B8BFB82FB681B8CBB827B891B017B8205
:101C5800FB8A23F440731B051B0DFB82FB881B03C7
:101C68009AB2FB8A1343FB823B891B029AB2FB8A16
:101C78001343FB82BB8A23F0A003BB827A8ABB8A08
:101C880013439BB243F01003BB82FB68FA8A1A83A2
:101C9800FB68BA8A1A841C37BD465DF8047B704716
:101CA80080B487B000AFF860084611461A4603466C
:101CB8007B810B463B811346FB800023FB8200237C
:101CC800BB8200237B82FB681B8C9BB223F480734E
:101CD8009AB2FB681A84FB689B8BFB82FB681B8C9F
:101CE800BB827B891B027B82FB8A23F0F303FB8286
:101CF800FB881B019AB23B8913439AB2FB8A1343B0
:101D0800FB82BB8A23F42063BB827A8ABB8A134393
:101D18009BB243F48073BB82FB68FA8A9A83FB68A0
:101D2800BA8A1A841C37BD465DF8047B704700BF29
:101D380080B487B000AFF860084611461A460346DB
:101D48007B810B463B811346FB800023FB820023EB
:101D5800BB8200237B82FB681B8C9BB223F48053DD
:101D68009AB2FB681A84FB689B8BFB82FB681B8C0E
:101D7800BB827B891B037B82FB8A23F440731B0590
:101D88001B0DFB823B891B029AB2FB8A1343FB8221
:101D9800FB881B039AB2FB8A1343FB82BB8A23F49A
:101DA80000535B045B0CBB827A8ABB8A13439BB2E9
:101DB80043F48053BB82FB68FA8A9A83FB68BA8A29
:101DC8001A841C37BD465DF8047B704780B584B023
:101DD80000AF786039600023FB733B685B78092BA0
:101DE80039D801A252F823F0411E0008551E0008F8
:101DF8005F1E00084B1E00085F1E0008231E000817
:101E0800191E00085F1E0008371E00082D1E000856
:101E18007868396800F036F922E07868396800F0A7
:101E28000DFA1DE07868396800F046FA18E078681D
:101E3800396800F0BBFA13E07868396800F0E6FA10
:101E48000EE07868396800F00BFB09E078683968BB
:101E580000F072FB04E07868396800F0DDFB00BF31
:101E6800FB7B18461037BD4680BD00BF80B584B0E7
:101E780000AF786039600023FB737B6893F81231F8
:101E8800032B1CD13B689B88DBB2012B11D87B68E4
:101E9800D3F8E4359B687868396898473B68DB88ED
:101EA800002B0BD1FB7B002B08D1786803F08EFB4D
:101EB8000AE07868396800F0AFFB05E004E078686C
:101EC800396800F0A9FB00BFFB7B18461037BD46F8
:101ED80080BD00BF80B584B000AF78603960002352
:101EE800FB733B689B88BB733B685B78012B39D0DD
:101EF800032B02D0002B6BD0BCE07B6893F8123127
:101F0800022B02D0032B0DD026E0BB7B002B08D080
:101F1800BB7B802B05D0BB7B7868194603F0B8FFE4
:101F28001FE01EE03B685B88002B0AD1BB7B002BBF
:101F380007D0BB7B802B04D0BB7B7868194603F0A5
:101F4800A7FF7B68D3F8E4359B68786839689847B9
:101F5800786803F03BFB04E07868396800F05CFBC4
:101F680000BF87E07B6893F81231022B02D0032B65
:101F78000DD027E0BB7B002B08D0BB7B802B05D086
:101F8800BB7B7868194603F083FF20E01FE03B68BD
:101F98005B88002B15D1BB7B002B0ED0BB7B802B25
:101FA8000BD0BB7B7868194603F0AEFF7B68D3F88B
:101FB800E4359B68786839689847786803F006FBC9
:101FC80005E004E07868396800F026FB00BF51E0BE
:101FD8007B6893F81231022B02D0032B0DD043E01B
:101FE800BB7B002B08D0BB7B802B05D0BB7B7868E4
:101FF800194603F04DFF3CE03BE0BB7B5BB2002B96
:1020080015DABB7B03F07F02796813469B00134403
:10201800DB000B4403F58C739B79002B03D0184B22
:1020280001221A601AE0164B00221A6016E0BB7BE8
:102038005BB2002B12DBBA7B796813469B00134412
:10204800DB000B4403F55C739B79002B03D00C4B2E
:1020580001221A6002E00A4B00221A6078680849D7
:10206800022203F04BFA04E07868396800F0D4FAE9
:1020780000BF00BFFB7B18461037BD4680BD00BFC0
:10208800DC05002080B584B000AF786039603B681B
:102098005B881B0A9BB2013B062B00F2B18001A2B0
:1020A80052F823F0C9200008FB2000082521000869
:1020B8000922000809220008F5210008FF2100086C
:1020C8007B68D3F8EC351B687A68917807F10A02C7
:1020D800084611469847F8603B68DB88402B04D0D7
:1020E8007B6893F81231012B02D108237B818CE0A5
:1020F8008BE07B68D3F8E4359B6A7A68917807F1BE
:102108000A02084611469847F860FB680133022224
:102118001A707B68FA68C3F8F02576E03B685B883C
:10212800DBB2052B5CD801A252F823F04D21000840
:1021380067210008812100089B210008B5210008BB
:10214800CF2100087B68D3F8EC355B687A68917812
:1021580007F10A02084611469847F86045E07B688F
:10216800D3F8EC359B687A68917807F10A0208463B
:1021780011469847F86038E07B68D3F8EC35DB689F
:102188007A68917807F10A02084611469847F8607C
:102198002BE07B68D3F8EC351B697A68917807F1F6
:1021A8000A02084611469847F8601EE07B68D3F893
:1021B800EC355B697A68917807F10A02084611469E
:1021C8009847F86011E07B68D3F8EC359B697A682A
:1021D800917807F10A02084611469847F86004E02A
:1021E8007868396800F018FA24E00EE078683968F1
:1021F80000F012FA1EE07868396800F00DFA19E06C
:102208007868396800F008FA14E07B89002B11D04F
:102218003B68DB88002B0DD03B68DA887B899342CA
:1022280028BF13469BB27B817B897868F9681A4678
:1022380003F064F91037BD4680BD00BF80B584B097
:1022480000AF786039603B689B88002B2DD13B68D4
:10225800DB88002B29D13B685B88DBB203F07F0366
:10226800FB737B6893F81231032B04D178683968C3
:1022780000F0D2F918E07B68FA7B83F81421FB7B25
:102288007868194603F096FE786803F09FF9FB7B9F
:10229800002B04D07B68022283F8122104E07B68BB
:1022A800012283F8122104E003E07868396800F01D
:1022B800B3F91037BD4680BD80B582B000AF7860F5
:1022C80039603B685B88DAB2374B1A70364B1B783B
:1022D800012B04D97868396800F09EF960E07B68C2
:1022E80093F81231022B02D0032B1BD053E02E4B54
:1022F8001B78002B12D02C4B1A787B6883F810219E
:102308007B68032283F81221274B1B7878681946CB
:1023180004F0D6F8786803F059F941E0786803F0DA
:1023280055F93DE0204B1B78002B12D17B68022227
:1023380083F812211C4B1A787B6883F810211A4BFA
:102348001B787868194604F0D3F8786803F03EF9EA
:1023580020E07B6893F81021134B1B789A4215D024
:102368007B6893F810317868194604F0C1F80E4B71
:102378001A787B6883F810210B4B1B78786819460C
:1023880004F09EF8786803F021F903E0786803F018
:102398001DF905E004E07868396800F03DF900BFF0
:1023A8000837BD4680BD00BFE805002080B582B073
:1023B80000AF786039603B68DB88012B04D078680F
:1023C800396800F029F91BE07B6893F81231022B79
:1023D80002D0032B06D00EE078680B49012203F0E7
:1023E8008DF80DE07B6803F588737868194601223B
:1023F80003F084F804E07868396800F00DF900BF4C
:102408000837BD4680BD00BFE005002080B582B01A
:1024180000AF786039607B6893F81231023B012B7A
:1024280013D80E4B00221A607B68D3F81831002BA2
:1024380005D00A4B1B6843F00203084A136078680A
:102448000649022203F05AF804E07868396800F077
:10245800E3F800BF0837BD4680BD00BFE405002093
:1024680080B584B000AF786039600023FB733B68A7
:102478005B88012B0ED17B680122C3F818217B6889
:10248800D3F8E4359B68786839689847786803F02A
:102498009DF84BE03B685B88022B47D13B689B88E3
:1024A800DBB2002B42D17B681B695B68BB603B6871
:1024B8009B881B0A9BB2FB73FB7B013B042B2BD82D
:1024C80001A252F823F000BFE5240008F124000817
:1024D800FD24000809250008152500083B7A01227B
:1024E80062F306133B7217E03B7A022262F306138B
:1024F8003B7211E03B7A032262F306133B720BE056
:102508003B7A042262F306133B7205E03B7A05220C
:1025180062F306133B7200BF064ABB6813607B6810
:10252800012283F81621786803F050F81037BD4669
:1025380080BD00BF7C44012080B582B000AF7860C8
:1025480039607B6893F81231023B012B13D83B6842
:102558005B88012B0ED17B680022C3F818217B68A9
:10256800D3F8E4359B68786839689847786803F049
:102578002DF805E004E07868396800F04DF800BFF0
:102588000837BD4680BD00BF80B483B000AF786017
:1025980039607B6893F8CC253B681A707B6893F8A0
:1025A800CD253B685A707B6893F8CE359AB27B6824
:1025B80093F8CF359BB21B029BB213449AB23B6887
:1025C8005A807B6893F8D0359AB27B6893F8D135F6
:1025D8009BB21B029BB213449AB23B689A807B68F9
:1025E80093F8D2359AB27B6893F8D3359BB21B0225
:1025F8009BB213449AB23B68DA803B68DB881A4680
:102608007B68C3F840217B68012283F811210C37CD
:10261800BD465DF8047B704780B582B000AF786036
:1026280039607868802103F033FC7868002103F072
:102638002FFC786801F026FA0837BD4680BD00BF38
:1026480080B586B000AFF860B9607A600023FB758A
:10265800FB68002B33D0F86800F034F803460133E8
:102668009BB25B009AB27B681A80FB7D5A1CFA7594
:102678001A46BB6813447A681288D2B21A70FB7D76
:102688005A1CFA751A46BB68134403221A7012E0E2
:10269800FB7D5A1CFA751A46BB681A44FB68591C1C
:1026A800F9601B781370FB7D5A1CFA751A46BB68D3
:1026B800134400221A70FB681B78002BE8D11837E6
:1026C800BD4680BD80B485B000AF78600023FB7341
:1026D80005E0FB7B0133FB737B6801337B607B6820
:1026E8001B78002BF5D1FB7B18461437BD465DF8E7
:1026F800047B704780B483B000AF78607B68002BA0
:1027080006D1094B83221A72074B04225A7205E03C
:10271800054B84221A72044B04225A720C37BD46A8
:102728005DF8047B704700BF1C00002080B483B0B4
:1027380000AF03463960FB713B6812221A80034BD5
:1027480018460C37BD465DF8047B70471C00002016
:1027580080B483B000AF03463960FB713B68042244
:102768001A80034B18460C37BD465DF8047B70474A
:102778003C00002080B582B000AF03463960FB7191
:10278800FB79002B05D1084808493A68FFF758FF3C
:1027980004E0074805493A68FFF752FF034B18461B
:1027A8000837BD4680BD00BF088000081406002019
:1027B8002C80000880B582B000AF03463960FB71F9
:1027C800044805493A68FFF73BFF034B18460837AA
:1027D800BD4680BD508000081406002080B582B038
:1027E80000AF03463960FB71FB79002B05D108481F
:1027F80008493A68FFF724FF04E0074805493A68A2
:10280800FFF71EFF034B18460837BD4680BD00BFC3
:1028180064800008140600207480000880B582B027
:1028280000AF03463960FB71FB79002B05D10848DE
:1028380008493A68FFF704FF04E0054805493A6883
:10284800FFF7FEFE034B18460837BD4680BD00BFA4
:10285800848000081406002080B582B000AF0346CB
:102868003960FB71FB79002B05D1084808493A68A3
:10287800FFF7E6FE04E0054805493A68FFF7E0FE81
:10288800034B18460837BD4680BD00BF948000083A
:102898001406002080B485B000AF78600023FB6088
:1028A8007B68DB684FF0FF325A607B68DB686FF04B
:1028B80080425A61FB7B43F08003FB737B7B43F0D0
:1028C80008037B737B68DB68FA689A611437BD4636
:1028D8005DF8047B704700BF80B586B000AF7860B4
:1028E8000023FB7400237B610023FB60032004F0BA
:1028F800F7FD7B68DB681B69FB607B6901337B61E3
:102908007B69174A934201D9002324E0FB68DB0F57
:10291800DBB2002BEAD000237B61FB6843F00103A4
:10292800FB607B68DB68FA681A617B68DB681B6997
:10293800FB607B6901337B617B69094A934200D95B
:1029480005E0FB6803F00103DBB2012BEDD00320A7
:1029580004F0C6FDFB7C18461837BD4680BD00BF95
:10296800400D030080B489B000AFF860B96011462B
:102978001A460B46FB711346BB800023FB76FB68A7
:10298800DB78002B22D100237B610023FB61BB880D
:102998000333002B00DA03339B107B61FB79FA6861
:1029A80032339B0013449B683B610023FB6109E0C1
:1029B800BB681A683B691A60FB690133FB61BB6835
:1029C8000433BB60FA697B699A42F1D3FB7E1846EF
:1029D8002437BD465DF8047B704700BF80B489B0DA
:1029E80000AFF860B9601346FB800023FB61FB88E9
:1029F8000333002B00DA03339B10BB61FB68D3F869
:102A0800D0307B610023FB6109E07B691A68BB68F1
:102A18001A60FB690133FB61BB680433BB60FA6968
:102A2800BB699A42F1D3BB6818462437BD465DF8A6
:102A3800047B704780B487B000AF78600B46FB70AA
:102A480000233B610023FB737B680022DA707B68FC
:102A580001229A707B6840229A80FB78012B13D15F
:102A68004FF0A0433B617B680122DA727B68082241
:102A78001A707B6804225A707B684FF4A072DA805F
:102A88007B6802221A7211E0FB78002B0ED1454BAD
:102A98003B617B680022DA727B680C221A707B68C3
:102AA80006225A707B684FF4A062DA803A697B6824
:102AB800DA603B6903F500631A467B681A610023F4
:102AC8007B611CE07B695A013B69134403F5106381
:102AD80019467A687B6904339B00134499607B69C3
:102AE8005A013B69134403F5306319467A687B69D8
:102AF80014339B00134459607B6901337B617B6805
:102B08005B781A467B699A42DCD83B6903F5806397
:102B18001A467B685A613B6903F588631A467B68E5
:102B2800C3F8CC2000237B610FE07B695A013B6925
:102B3800134403F5A06319467A687B6922339B0026
:102B4800134499607B6901337B617B681B781A4663
:102B58007B699A42E9D800237B610FE07B691A03FD
:102B68003B69134403F5805319467A687B6932330D
:102B78009B00134499607B6901337B617B681B78F8
:102B88001A467B699A42E9D83B6903F560631A469D
:102B98007B68C3F80C21FB7B18461C37BD465DF8E3
:102BA800047B70470000044080B586B000AF7860B1
:102BB8000023FB7500233B610023FB600023BB60FF
:102BC8007B681B7A012B42D17B68DB689B6BFB60BF
:102BD800BB7B6FF30003BB737B685B7A002B03D06E
:102BE800BB7B43F01003BB737B68DB68FA689A63AE
:102BF80000233B617B68DB68DB683B613B7C6FF3F0
:102C080086133B74BB7C6FF38613BB74BB7C6FF37A
:102C18004103BB74BB7C6FF3C303BB747B68DB6885
:102C28003A69DA607868FFF757FE7B68DB78012B32
:102C38003DD13B7A052262F344033B723B7A43F071
:102C480020033B727B68DB68BA689A602FE07B6878
:102C5800DB68DB683B613B7C43F040033B747B688B
:102C6800DB683A69DA607868FFF736FE0023FB60B4
:102C7800BB7B43F00103BB73BB7B43F00403BB7313
:102C8800BB7B43F00803BB73BB7B43F02003BB73E0
:102C98007B685B7A002B03D0BB7B43F01003BB73CC
:102CA8007B68DB68FA689A63142004F03DFC7B6853
:102CB800DB78012B10D17B68DB689B68BB603B7AB3
:102CC800052262F344033B723B7A43F020033B72D4
:102CD8007B68DB68BA689A60FB7D18461837BD4682
:102CE80080BD00BF80B485B000AF78600023FB735F
:102CF8000023BB603B7A43F001033B727B68DB68CF
:102D08007A68D2689168BA680A439A60FB7B184669
:102D18001437BD465DF8047B704700BF80B485B0AA
:102D280000AF78600023FB730023BB603B7A43F05D
:102D380001033B727B68DB687A68D2689168BA687D
:102D4800D2430A409A60FB7B18461437BD465DF8AB
:102D5800047B704780B586B000AF78603960002387
:102D6800FB7400237B610023FB60FB6843F02003B6
:102D7800FB603B68DBB203F01F03DBB203F01F0309
:102D88009B01FA6822F4F8621343FB607B68DB68F6
:102D9800FA681A617B68DB681B69FB607B69013331
:102DA8007B617B69094A934200D906E0FB685B09AD
:102DB80003F00103DBB2012BECD0032004F090FBFD
:102DC800FB7C18461837BD4680BD00BF400D030088
:102DD80080B586B000AF78600023FB7400237B6168
:102DE8000023FB60FB6843F01003FB607B68DB6833
:102DF800FA681A617B68DB681B69FB607B690133D1
:102E08007B617B69094A934200D906E0FB681B098C
:102E180003F00103DBB2012BECD0032004F060FBCC
:102E2800FB7C18461837BD4680BD00BF400D030027
:102E380080B584B000AF78600B46FB700023FB734D
:102E48007B68DB68DB68BB60FB7A6FF34513FB725A
:102E5800FB7A6FF38613FB72FB78012B04D1FB7AA4
:102E680043F02003FB7206E0FB78002B03D1FB7ACA
:102E780043F04003FB727B68DB68BA68DA60322093
:102E880004F052FBFB7B18461037BD4680BD00BFDF
:102E980080B483B000AF78607B68DB685B6903F05F
:102EA800010318460C37BD465DF8047B704700BF28
:102EB80080B582B000AF78607868FFF7E9FF034615
:102EC800012B14BF01230023DBB218460837BD4687
:102ED80080BD00BF80B582B000AF78607868FFF72A
:102EE800D7FF0346012B0CBF01230023DBB2184692
:102EF8000837BD4680BD00BF80B485B000AF78609C
:102F08000023FB607B68DB685B69FB607B68DB68D0
:102F18009B69FA681340FB60FB6818461437BD4686
:102F28005DF8047B704700BF80B483B000AF786061
:102F38007B68DB685B6818460C37BD465DF8047B28
:102F4800704700BF80B485B000AF78600B46FB7057
:102F58007B681B691B68FB60FB7803F00303DAB22C
:102F68003B7B62F301033B737B681B69FA681A6059
:102F78001437BD465DF8047B704700BF80B58CB040
:102F880000AF7860002387F82B3000237B62002392
:102F98003B620023FB610023BB6100237B617B68EC
:102FA800D3F80C3100221A607B681B691B683B62EE
:102FB80097F821306FF3C40387F821307B681B69C9
:102FC8003A6A1A607B68DB7A012B33D1786803216F
:102FD800FFF7B8FF7B68DB6880225A624023FB83D7
:102FE8008023BB837B68DB68FA699A62BA8BFB8BA8
:102FF80013449BB23B8380237B837B68DB68BA697D
:10300800C3F804213A8B7B8B13449BB23B83002388
:103018007B837B68DB68BA69C3F808213A8B7B8BB2
:1030280013449BB23B8300237B837B68DB68BA69CC
:10303800C3F80C2178681021FFF78CFE7868FFF739
:10304800C7FE7B681B6900221A617B681B69002226
:103058005A617B681B694FF0FF329A617B681B6974
:103068000022DA610023FB623AE07A68FB6A0433E3
:103078009B0013449B681B687B6297F8273023F0FA
:103088007F03DBB2002B0ED000237B6297F827303A
:1030980043F0400387F8273097F8273043F00803B8
:1030A80087F8273001E000237B627A68FB6A0433E3
:1030B8009B0013449B687A6A1A607A68FB6A043337
:1030C8009B0013449B6800221A617A68FB6A0433E8
:1030D8009B0013449B68FF229A60FB6A0133FB62E2
:1030E8007B685B781A46FB6A9A42BED80023FB626B
:1030F80035E07A68FB6A14339B0013445B681B68ED
:10310800FB60FB7B23F07F03DBB2002B0AD000239C
:10311800FB60FB7B43F04003FB73FB7B43F008033E
:10312800FB7301E00023FB607A68FB6A14339B00A1
:1031380013445B68FA681A607A68FB6A14339B0068
:1031480013445B6800221A617A68FB6A14339B0097
:1031580013445B68FF229A60FB6A0133FB627B6859
:103168005B781A46FB6A9A42C3D800237B617B7D51
:1031780043F001037B757B681B697A6812691169E2
:103188007A69D24311407A690A431A617B68DB780D
:10319800012B1BD100233B613B7C43F001033B74B3
:1031A8003B7C43F002033B743B8A402262F38A0370
:1031B8003B82BB7C43F00103BB747B8A402262F3F1
:1031C80049037B827B681B693A691A63786800F057
:1031D80007F897F82B3018463037BD4680BD00BF3A
:1031E80080B584B000AF78600023FB730023BB6018
:1031F8007B68DB6800229A617B68DB686FF080423D
:103208005A617868FFF746FB7B68DB78002B03D1AF
:103218003B7A43F010033B727B7A43F008037B72DE
:103228007B7A43F010037B727B7A43F020037B7236
:10323800BB7A43F00403BB72BB7A43F00803BB724A
:103248003B7A43F008033B72BB7A43F01003BB722E
:10325800BB7A43F02003BB727B68DB687A68D2686C
:103268009169BA68D2431140BA680A439A61FB7BF4
:1032780018461037BD4680BD80B485B000AF786071
:103288000023FB737B681B699B68BB603B7AC3F3B5
:103298004103DBB2022B09D0032B04D0012B02D04F
:1032A8000323FB7305E00223FB7302E00123FB7396
:1032B80000BFFB7B18461437BD465DF8047B70479A
:1032C80080B487B000AF78600023FB750023BB6033
:1032D8007B681B699B683B617B689B691B68FB601B
:1032E8003B7CC3F34103DBB2022B04D0BB896FF3F1
:1032F8000A03BB8105E0BB89032262F30A03BB8191
:1033080000BF7B689B69FA681A607B7A43F0010307
:103318007B727B681B697A6812695168BA68D24304
:103328001140BA680A435A60FB7D18461C37BD46EF
:103338005DF8047B704700BF80B487B000AF786049
:1033480039600023FB740023FB600023BB603B68EB
:103358005B78012B0FD13B681B787A6804339B009C
:1033680013449B687B613B681B781A460123934092
:103378009BB23B810EE03B681B787A6814339B0054
:1033880013445B687B613B681B781A4601239340B2
:103398009BB27B817B691B68FB607B7B23F07F038F
:1033A800DBB2002B27D13B689B689BB2C3F30A03AF
:1033B8009AB2BB8962F30A03BB813B68DB7803F0EE
:1033C8000303DAB2BB7B62F38303BB733B68DB881E
:1033D800DBB203F00F03DAB2FB8962F38913FB81D6
:1033E800FB7B43F01003FB737B7B43F080037B7311
:1033F800FA687B691A607B681B697A681269D16907
:10340800BA680A43DA61FB7C18461C37BD465DF88A
:10341800047B704780B487B000AF786039600023C0
:10342800FB740023FB600023BB603B685B78012BC7
:103438000FD13B681B787A6804339B0013449B6860
:103448007B613B681B781A46012393409BB23B8102
:103458000EE03B681B787A6814339B0013445B6862
:103468007B613B681B781A46012393409BB27B81A2
:103478007B7B6FF3C7137B73FA687B691A607B6881
:103488001B697A681269D169BA68D2430A40DA615D
:10349800FB7C18461C37BD465DF8047B704700BFAF
:1034A80080B588B000AF786039600023FB770023CF
:1034B800BB6100237B6100233B613B685B78012B88
:1034C80040F0AB803B681B787A6804339B00134458
:1034D8009B681B687B613B681B787A6804339B0098
:1034E80013449B681B693B613B685B69002B09D1EE
:1034F8003B696FF312033B617B8A012262F3CC03C1
:103508007B8222E03B685B69C3F312023B6962F38A
:1035180012033B613B685A693B689B6813445A1E17
:103528003B689B68B2FBF3F39BB2C3F309039AB2FF
:103538007B8A62F3CC037B823B68DB78012B04D166
:10354800FB7C012262F34613FB743B681B787A68A4
:1035580004339B0013449B683A691A617B68DB78E3
:10356800012B0AD13B681B787A6804339B0013440B
:103578009B683A6812695A6115E03B68DB78012B51
:1035880011D03B685B69002B0DD03B681B781A464D
:1035980001239340BB617B681B697A681269516B90
:1035A800BA690A435A633B68DB78012B14D17B68FC
:1035B8001B699B68FB60FB68C3F30D239BB203F098
:1035C8000103002B04D1FB7D43F02003FB7503E0CE
:1035D800FB7D43F01003FB75FB7D43F00403FB7593
:1035E800FB7D43F08003FB753B681B787A680433E6
:1035F8009B0013449B687A691A603B68DB78012B4F
:1036080040F089803B68D9683B681A783B685B69F9
:103618009BB27868FFF7A6F97DE03B681B787A686B
:1036280014339B0013445B681B687B613B681B7801
:103638007A6814339B0013445B681B693B613B68E1
:103648005B69002B0DD13B689B68C3F312023B6991
:1036580062F312033B617B8A012262F3CC037B8213
:1036680020E03B685A693B689B6813445A1E3B68D4
:103678009B68B2FBF3F39BB2C3F309039AB27B8A4C
:1036880062F3CC037B827B8AC3F3C9039BB21A46DD
:103698003B689B6803FB02F3C3F312023B6962F3C6
:1036A80012033B613B681B787A6814339B00134410
:1036B8005B683A691A617B68DB78012B09D13B6842
:1036C8001B787A6814339B0013445B683A68126964
:1036D8005A613B68DB78012B0CD13B685B79002B86
:1036E80004D0FB7D43F02003FB7503E0FB7D43F032
:1036F8001003FB75FB7D43F00403FB75FB7D43F072
:103708008003FB753B681B787A6814339B0013446D
:103718005B687A691A60FB7F18462037BD4680BD12
:1037280080B489B000AF786039600023FB7700234C
:10373800BB6100233B610023BB603B685B78012BC6
:1037480070D17B689B697B617B691B683B617B6986
:103758001B69BB603B685B69002B09D13B7A6FF33F
:1037680006033B72BB7A012262F3C403BB7223E0F7
:103778003B685A693B689B689A420ED93B689A68CD
:103788003B685A613B689B68DBB203F07F03DAB29F
:103798003B7A62F306033B7209E03B685B69DBB284
:1037A80003F07F03DAB23B7A62F306033B72BB7A1B
:1037B800012262F3C403BB72BA687B691A617B6831
:1037C800DB78012B09D13B681B787A6804339B00AE
:1037D80013449B683A6812695A61FB7C43F00403FE
:1037E800FB74FB7C43F08003FB743A697B691A60C5
:1037F8007B68DB78002B76D13B685B69002B72D045
:103808003B681B781A46012393401A46BB69134349
:10381800BB617B681B697A681269516BBA690A4394
:103828005A6360E03B681B787A6814339B00134442
:103838005B681B683B613B681B787A6814339B00A4
:1038480013445B681B69BB603B685B69002B0FD145
:103858003B689B68DBB203F07F03DAB23B7A62F322
:1038680006033B72BB7A012262F3C403BB7212E007
:103878003B689A683B685A613B689B68DBB203F017
:103888007F03DAB23B7A62F306033B72BB7A01220A
:1038980062F3C403BB723B681B787A6814339B00DD
:1038A80013445B68BA681A617B68DB78012B09D11D
:1038B8003B681B787A6814339B0013445B683A684A
:1038C80012695A61FB7C43F00403FB74FB7C43F0F0
:1038D8008003FB743B681B787A6814339B0013449D
:1038E8005B683A691A60FB7F18462437BD465DF865
:1038F800047B704780B487B000AF786039600023DC
:10390800FB750023FB603B685B78012B1CD13B688F
:103918001B787A6804339B0013449B683B613B69BE
:103928001B68FB60FB7B23F07F03DBB2002B03D01B
:10393800FB7B43F04003FB73BB7B43F02003BB736B
:10394800FA683B691A6011E03B681B787A6814339F
:103958009B0013445B683B613B691B68FB60BB7B56
:1039680043F02003BB73FA683B691A60FB7D184675
:103978001C37BD465DF8047B704700BF80B487B034
:1039880000AF786039600023FB740023FB603B685C
:103998005B78012B08D13B681B787A6804339B005D
:1039A80013449B687B6107E03B681B787A68143393
:1039B8009B0013445B687B617B691B68FB60BB7B76
:1039C8006FF34513BB733B68DB78032B03D03B686D
:1039D800DB78022B03D1FB7B43F01003FB73FA68FF
:1039E8007B691A60FB7C18461C37BD465DF8047B72
:1039F800704700BF80B485B000AF78607B681B69F2
:103A08009B69FB607B681B69DB69FA681340FB6094
:103A1800FB681B0C18461437BD465DF8047B7047DD
:103A280080B485B000AF78600B46FB70FB787A688D
:103A380014339B0013445B689B68FB607B681B69BD
:103A48005B69FA681340FB60FB6818461437BD468B
:103A58005DF8047B704700BF80B485B000AF786024
:103A68007B681B699B69FB607B681B69DB69FA687B
:103A78001340FB60FB689BB218461437BD465DF8DF
:103A8800047B704780B487B000AF786000233B6147
:103A9800FB7C43F0C003FB74BB7C012262F3C403CC
:103AA800BB743B7C182262F306033B747B685B6D36
:103AB8003A691A617B68DB78012B16D10023FB6019
:103AC8007B685B6D7A6802F2CC525A617B685B6DE9
:103AD8001B68FB60FB7B43F08003FB734FF0802384
:103AE800FB607B685B6DFA681A601C37BD465DF841
:103AF800047B704780B586B000AF78607B68D3F8E8
:103B08001831002B39D07B681B699B683B613B7C73
:103B180003F00103DBB2002B2FD07B689B7A002BCC
:103B280011D07B68D3F80C311B68FB603B7B6FF3CB
:103B380041033B733B7B6FF300033B737B68D3F814
:103B48000C31FA681A6000237B613B7D43F0010366
:103B58003B757B681B697A68126951687A690A4300
:103B68005A60052003F0E0FC7B681B697A681269DB
:103B780051687A69D2430A405A601837BD4680BDF9
:103B880080B485B000AF78607B689B7A002B1BD02F
:103B98007B681B699B68FB603B7B03F00103DBB21E
:103BA800002B11D07B68D3F80C311B68BB603B7AC3
:103BB8006FF341033B723B7A6FF300033B727B6800
:103BC800D3F80C31BA681A601437BD465DF8047B27
:103BD800704700BF80B584B000AF78607B68012271
:103BE80083F812210023FB6012E07A68FB68043333
:103BF8009B0013449B68FF229A607A68FB68143321
:103C08009B0013445B68FF229A60FB680133FB60EA
:103C18007B685B781A46FB689A42E6D87B681B6922
:103C280000221A617B681B6900225A617B681B6944
:103C38000022DA617B681B694FF0FF329A6178686D
:103C4800FFF7C6F878681021FFF784F81037BD46EB
:103C580080BD00BF80B487B000AF786039600023B2
:103C68007B610023FB603B685B78012B1FD13B68BD
:103C78001B787A6804339B0013449B683B613B695B
:103C88001B68FB60BB7B03F02003DBB2002B02D078
:103C980010237B612DE0BB7B03F00203DBB2002B1A
:103CA80002D020237B6124E030237B6121E03B6844
:103CB8001B787A6814339B0013445B683B613B694B
:103CC8001B68FB60BB7B03F02003DBB2002B03D037
:103CD8004FF480537B610CE0BB7B03F00203DBB243
:103CE800002B03D04FF400537B6102E04FF44053A4
:103CF8007B617B6918461C37BD465DF8047B7047BD
:103D080080B586B000AFF860B9607A6000233B6187
:103D1800BB685B78012B40D1BB681B78FA68043319
:103D28009B0013449B687B617B691B683B617B68D4
:103D3800102B04D1F868B968FFF7DCFD73E07B68E5
:103D4800202B04D1FB7C43F00803FB7468E07B68FC
:103D5800302B1AD1BB7C03F02003DBB2002B07D039
:103D6800BB6800225A71F868B968FFF707FE5AE085
:103D7800FB7C43F00403FB747B7C43F080037B747F
:103D8800FB7C43F08003FB744AE07B68002B47D13F
:103D98007B7C6FF3C7137B7442E0BB681B78FA68BF
:103DA80014339B0013445B687B617B691B683B6130
:103DB8007B68B3F5805F04D1BB7C43F02003BB7400
:103DC8002EE07B68B3F5005F04D1FB7C43F0080369
:103DD800FB7425E07B68B3F5405F1AD1BB7C03F028
:103DE8002003DBB2002B07D0BB6800225A71F868A9
:103DF800B968FFF7C3FD16E0FB7C43F00403FB74CE
:103E08007B7C43F080037B74FB7C43F08003FB7472
:103E180006E07B68002B03D17B7C6FF3C7137B74B0
:103E28003A697B691A601837BD4680BD80B400AF17
:103E3800104A104B1B6843F0010313600D4B00221E
:103E48009A600C4A0B4B1B6823F0847323F480336D
:103E58001360084B084A5A60064A064B1B6823F44D
:103E680080231360034B0022DA60BD465DF8047BB3
:103E7800704700BF003802401030002480B483B07F
:103E880000AF0346FB71054B00221A70034AFB7909
:103E980013700C37BD465DF8047B7047023802404A
:103EA80080B582B000AF00233B600023FB71002384
:103EB800BB71312000F086FC0346BB713B680133BF
:103EC8003B603B68B3F5A06F02D0BB79002BF0D004
:103ED800312000F077FC0346002B02D00123FB7150
:103EE80001E00023FB71FB7918460837BD4680BD09
:103EF80080B485B000AF0346FB710023FB600A4B1A
:103F08001B68FB60FB6823F0F803FB60FB79DB00B0
:103F1800FA681343FB60044AFB6813601437BD4614
:103F28005DF8047B704700BF0038024080B483B05E
:103F380000AF0346FB71044AFB7913600C37BD469A
:103F48005DF8047B704700BF0000474280B483B02F
:103F580000AF0346FB710C4B00221A700A4B00227B
:103F68001A70FB79012B02D0042B04D007E0064B12
:103F780001221A7003E0044B05221A7000BF0C37A7
:103F8800BD465DF8047B70477038024080B483B04A
:103F980000AF0346FB71044AFB7913600C37BD463A
:103FA8005DF8047B704700BF800E474280B485B03F
:103FB80000AFF860B9607A603B600A497B689A0193
:103FC800BB681A433B685B08013B1B041A43FB6848
:103FD8001A43BB691B0613434B601437BD465DF893
:103FE800047B70470038024080B483B000AF0346BA
:103FF800FB71044AFB7913600C37BD465DF8047BFE
:10400800704700BF6000474280B483B000AF78605B
:10401800396006497B689A013B681B071343C1F85E
:1040280084300C37BD465DF8047B70470038024089
:1040380080B483B000AF0346FB71044AFB79136078
:104048000C37BD465DF8047B704700BF68004742E7
:1040580080B483B000AF0346FB71044AFB79136058
:104068000C37BD465DF8047B704700BF4C004742E3
:1040780080B485B000AF786039600023FB600A4BDC
:104088009B68FB60FB6823F0EC63FB607A683B6825
:104098001343FA681343FB60034AFB6893601437C1
:1040A800BD465DF8047B70470038024080B485B097
:1040B80000AF786039600023FB600A4B9B68FB60A7
:1040C800FB6823F07843FB607A683B681343FA681F
:1040D8001343FB60034AFB6893601437BD465DF8E1
:1040E800047B70470038024080B485B000AF786028
:1040F8000023FB60094B9B68FB60FB6823F003030C
:10410800FB60FA687B681343FB60044AFB689360B2
:104118001437BD465DF8047B704700BF0038024085
:1041280080B400AF054B9B68DBB203F00C03DBB235
:104138001846BD465DF8047B704700BF0038024052
:1041480080B485B000AF78600023FB60094B9B68A2
:10415800FB60FB6823F0F003FB60FA687B6813439D
:10416800FB60044AFB6893601437BD465DF8047B26
:10417800704700BF0038024080B485B000AF786057
:104188000023FB60094B9B68FB60FB6823F4E0534A
:10419800FB60FA687B681343FB60044AFB68936022
:1041A8001437BD465DF8047B704700BF00380240F5
:1041B80080B485B000AF78600023FB60094B9B6832
:1041C800FB60FB6823F46043FB607B68DB00FA68F4
:1041D8001343FB60034AFB6893601437BD465DF8E0
:1041E800047B70470038024080B489B000AF786023
:1041F8000023BB6100237B610023FB6102233B6139
:104208000023FB600223BB60484B9B6803F00C0350
:10421800BB61BB69042B07D0082B09D0002B3FD109
:104228007B68434A1A603FE07B68424A1A603BE079
:104238003E4B5B6803F480039B0DFB603B4B5B6864
:1042480003F03F03BB60FB68002B0DD0394ABB6805
:10425800B2FBF3F2354B596847F6C0730B409B0924
:1042680003FB02F3FB610CE0314ABB68B2FBF3F2DB
:104278002E4B596847F6C0730B409B0903FB02F3AA
:10428800FB612A4B5B6803F440331B0C01335B0072
:104298003B61FA693B69B2FBF3F27B681A6003E0A1
:1042A8007B68234A1A6000BF204B9B6803F0F00329
:1042B800BB61BB691B09BB611F4ABB6913441B78FF
:1042C800DBB27B617B681A687B69DA407B685A607D
:1042D800164B9B6803F4E053BB61BB699B0ABB6147
:1042E800154ABB6913441B78DBB27B617B685A684B
:1042F8007B69DA407B689A600C4B9B6803F46043E7
:10430800BB61BB695B0BBB610B4ABB6913441B7880
:10431800DBB27B617B685A687B69DA407B68DA606C
:104328002437BD465DF8047B704700BF0038024063
:104338000024F40000127A004000002080B485B008
:1043480000AF78600023FB607B6803F44073B3F52B
:10435800407F11D10F4B9B68FB60FB6823F4F81377
:10436800FB607B6823F0704323F44073FA681343BF
:10437800FB60084AFB6893600649064B1A6F7B6826
:10438800C3F30B0313430B671437BD465DF8047B77
:10439800704700BF0038024080B483B000AF0346C6
:1043A800FB71044AFB7913600C37BD465DF8047B4A
:1043B800704700BF3C0E474280B483B000AF03464D
:1043C800FB71044AFB7913600C37BD465DF8047B2A
:1043D800704700BF400E474280B483B000AF78609A
:1043E800034A7B6813600C37BD465DF8047B704751
:1043F8005C01474280B483B000AF78600B46FB7025
:10440800FB78002B06D00949084B1A6B7B681343CD
:104418000B6306E00549054B1A6B7B68DB431340C9
:104428000B630C37BD465DF8047B704700380240CB
:1044380080B483B000AF78600B46FB70FB78002B2C
:1044480006D00949084B5A6B7B6813434B6306E057
:104458000549054B5A6B7B68DB4313404B630C37AC
:10446800BD465DF8047B70470038024080B483B0D5
:1044780000AF78600B46FB70FB78002B06D009492B
:10448800084B9A6B7B6813438B6306E00549054B21
:104498009A6B7B68DB4313408B630C37BD465DF832
:1044A800047B70470038024080B483B000AF786066
:1044B8000B46FB70FB78002B06D00949084B1A6C99
:1044C8007B6813430B6406E00549054B1A6C7B684F
:1044D800DB4313400B640C37BD465DF8047B704723
:1044E8000038024080B483B000AF78600B46FB70A0
:1044F800FB78002B06D00949084B5A6C7B6813439C
:104508004B6406E00549054B5A6C7B68DB43134056
:104518004B640C37BD465DF8047B70470038024099
:1045280080B483B000AF78600B46FB70FB78002B3B
:1045380006D00949084B1A697B6813430B6106E0EA
:104548000549054B1A697B68DB4313400B610C373F
:10455800BD465DF8047B70470038024080B483B0E4
:1045680000AF78600B46FB70FB78002B06D009493A
:10457800084B5A697B6813434B6106E00549054BB4
:104588005A697B68DB4313404B610C37BD465DF8C5
:10459800047B70470038024080B483B000AF786075
:1045A8000B46FB70FB78002B06D00949084B9A692B
:1045B8007B6813438B6106E00549054B9A697B6864
:1045C800DB4313408B610C37BD465DF8047B7047B5
:1045D8000038024080B483B000AF78600B46FB70AF
:1045E800FB78002B06D00949084B1A6A7B681343ED
:1045F8000B6206E00549054B1A6A7B68DB431340EA
:104608000B620C37BD465DF8047B704700380240EA
:1046180080B483B000AF78600B46FB70FB78002B4A
:1046280006D00949084B5A6A7B6813434B6206E077
:104638000549054B5A6A7B68DB4313404B620C37CC
:10464800BD465DF8047B70470038024080B483B0F3
:1046580000AF78600B46FB70FB78002B06D0094949
:10466800084B1A6D7B6813430B6506E00549054B3B
:104678001A6D7B68DB4313400B650C37BD465DF84C
:10468800047B70470038024080B483B000AF786084
:104698000B46FB70FB78002B06D00949084B5A6D76
:1046A8007B6813434B6506E00549054B5A6D7B68EB
:1046B800DB4313404B650C37BD465DF8047B704700
:1046C8000038024080B483B000AF78600B46FB70BE
:1046D800FB78002B06D00949084B9A6D7B68134379
:1046E8008B6506E00549054B9A6D7B68DB431340F3
:1046F8008B650C37BD465DF8047B70470038024077
:1047080080B483B000AF78600B46FB70FB78002B59
:1047180006D00949084B1A6E7B6813430B6606E0FE
:104728000549054B1A6E7B68DB4313400B660C3753
:10473800BD465DF8047B70470038024080B483B002
:1047480000AF78600B46FB70FB78002B06D0094958
:10475800084B5A6E7B6813434B6606E00549054BC8
:104768005A6E7B68DB4313404B660C37BD465DF8D9
:10477800047B70470038024080B483B000AF034622
:104788000A46FB711346BB71BB79002B08D00C4954
:104798000B4B1B78DAB2FB791343DBB20B7009E0E1
:1047A8000749074B1B78DAB2FB79DB43DBB21340CE
:1047B800DBB20B700C37BD465DF8047B704700BF59
:1047C8000D38024080B487B000AF0346FB71002368
:1047D800FB6000237B610023FB74FB795B09DBB280
:1047E800FB60FB68012B03D1124B1B687B6109E05E
:1047F800FB68022B03D10F4B1B6F7B6102E00D4B53
:104808005B6F7B61FB7903F01F03FB60FB687A69D0
:1048180022FA03F303F00103002B02D00123FB74F7
:1048280001E00023FB74FB7C18461C37BD465DF88D
:10483800047B70470038024080B400AF044A044B40
:104848005B6F43F080735367BD465DF8047B704728
:104858000038024080B485B000AF0346FB710023E6
:10486800FB73094BDA68FB791340002B02D0012354
:10487800FB7301E00023FB73FB7B18461437BD462E
:104888005DF8047B704700BF0038024080B483B0F5
:1048980000AF0346FB71044AFB7913700C37BD4621
:1048A8005DF8047B704700BF0E38024080B584B0C5
:1048B80000AFF860B9607A60084B1B68002B04D120
:1048C80000F010F8054B01221A60054B01221A70FE
:1048D800002318461037BD4680BD00BFF4050020F0
:1048E800F005002080B5AAB000AF01200121FFF734
:1048F80081FD3D4A3C4B1B6C43F0005313643A4A1C
:10490800394B1B6B43F4001313632C23C7F88C300B
:104918000023C7F890300023C7F8983007F18C03BC
:104928000020194600F0E2FB07F18C03102019461D
:1049380000F0DCFB3023C7F89C30032387F8A03055
:10494800002387F8A330002387F8A230032387F8D1
:10495800A13007F19C032548194601F08DFE04207B
:10496800002100F097FC0420002100F0ADFC1E4A55
:104978001D4B1B6C43F00403136440F2B513A7F8F6
:10498800A63007F180031846FBF770FDB7F8A6308C
:10499800C7F884300023A7F880300023A7F88830B0
:1049A8000023A7F8823007F1800311481946FBF766
:1049B800F3FC0F482021FCF7EBFF0020012100F059
:1049C800DDFB0020012100F0DFFC1E233B710023EA
:1049D8007B710023BB710123FB713B1D184602F05C
:1049E800C5FDA837BD4680BD003802400000024022
:1049F8000008004080B483B000AF7860044B002208
:104A08001A70002318460C37BD465DF8047B7047C2
:104A1800F005002080B584B000AFF860B960134697
:104A2800FB71644B1B78002B03D0624B1B78052B62
:104A380004D1604B05221A70FF23B6E0FB79022BE4
:104A480000F08980032B5DD0012B40F0AD80594BDD
:104A58001B78012B0BD0574B1B78042B07D0554BD9
:104A68001B78022B03D0534B1B78032B3FD1514BA0
:104A780002221A70504B1B68B3F5164F12D24E4BD8
:104A88001B685B004D4A13441846F968BA6803F07E
:104A980009F9BB685B08484A126813441A46464B32
:104AA8001A6009E04548F968BA6803F0FBF8BB6882
:104AB8005B081A46404B1A60414B1B68002B14D107
:104AC8003D4B1B68B3F5964F0FD33E4A3D4B1B88B1
:104AD8009BB243F001039BB213803A4801210122A3
:104AE800FCF7A6FD364B01221A6000235DE0314B2E
:104AF8001B78032B04D12F4B02221A70002354E099
:104B0800FF2352E02B4B1B78022B01D0FF234CE0F4
:104B1800284B1B78022B19D12A4A2A4B1B889BB297
:104B280023F001039BB21380264801210022FCF7E1
:104B38007FFD22484FF400614FF4963203F074F978
:104B48001D4B00221A601E4B00221A60194B0422CA
:104B58001A70002329E0174B1B78022B01D0FF2382
:104B680023E0144B1B78022B19D1164A154B1B88CE
:104B78009BB223F001039BB213801248012100224B
:104B8800FCF756FD0D484FF400614FF4963203F0E0
:104B98004BF9094B00221A60094B00221A60054B99
:104BA80003221A70002300E0FF2318461037BD4681
:104BB80080BD00BFF0050020EC050020480600205D
:104BC800F80500200008004080B483B000AF034619
:104BD800FB71002318460C37BD465DF8047B70470F
:104BE80080B483B000AF0346FB71002318460C372E
:104BF800BD465DF8047B704780B483B000AF0346C0
:104C0800FB71002318460C37BD465DF8047B7047DE
:104C180080B400AF034B1B781846BD465DF8047B93
:104C2800704700BFF005002080B400AFBD465DF8B6
:104C3800047B704780B400AFFEE700BF80B400AFCC
:104C4800FEE700BF80B400AFFEE700BF80B400AF4E
:104C5800FEE700BF80B400AFBD465DF8047B704737
:104C680080B400AFBD465DF8047B704780B400AFE8
:104C7800BD465DF8047B704780B400AFBD465DF863
:104C8800047B704780B500AF094B9B7A002B0AD094
:104C9800084A084B1B6823F00603136002F026FE3F
:104CA8000348FEF76DFF4FF4802002F011FE80BD2F
:104CB8004832012010ED00E080B500AF014801F056
:104CC80091FE80BD4832012080B500AF022002F07D
:104CD800DBFD0346002B02D0022002F0F9FD80BD67
:104CE80080B400AFBD465DF8047B704780B582B0E4
:104CF80000AF00237B6000233B603C480121FCF7A8
:104D0800F5FC0346002B6ED0032000F0DBF8384B8F
:104D18001B785A1CD1B2364A1170002B02D0012BD5
:104D28002DD044E0334B1A88324B5A80324B1A88C4
:104D3800314B5A80314B1B885A1C91B22F4A118033
:104D48001A462F4B33F812202E4B53409AB2294B58
:104D58001A802A4B1B885A1C91B2284A11801A467D
:104D6800274B33F81220274B53409AB2224B1A8014
:104D7800204B5B887B60204B5B883B601BE01D4BB6
:104D88001B881A461B4B5B881344DA0F13445B10CD
:104D98007B60194B1B881A46174B5B881344DA0F44
:104DA80013445B103B60124B00221A7003E0104B57
:104DB80000221A7000BF7B689BB20420194600F0DD
:104DC80069FA3B689BB20420194600F07DFA0B4B48
:104DD8001B88B3F5164F02D3084B00221A800348EC
:104DE8000121FCF7ADFC0837BD4680BD0008004036
:104DF800FC0500206C00002070000020FE0500204B
:104E0800480600200080FFFF80B584B000AF03464D
:104E1800FB71FB79104A52F8233018460121FFF73D
:104E2800E9FAFB790D4A32F81330BB6001233B7372
:104E38000023BB730123FB7302237B73FB79084AAE
:104E480052F8232007F108031046194601F014FC14
:104E58001037BD4680BD00BFAC800008A4800008A4
:104E68007400002080B483B000AF0346FB71FB7967
:104E7800064A52F82330FA79054931F812201A8384
:104E88000C37BD465DF8047B704700BF74000020F6
:104E9800A480000880B483B000AF0346FB71FB799F
:104EA800064A52F82330FA79054931F812205A8314
:104EB8000C37BD465DF8047B704700BF74000020C6
:104EC800A480000880B483B000AF0346FB71FB796F
:104ED800094A52F82330FA79074951F822205269D1
:104EE800F979064830F811104A405A610C37BD4626
:104EF8005DF8047B704700BF74000020A4800008A0
:104F080080B588B000AF03460A46FB711346BB71F3
:104F1800012318460121FFF76DFA4FF48040012163
:104F2800FFF7E0FA00233B770023FB770123BB61FF
:104F3800FB79174A52F8232007F11803104619463F
:104F480001F09AFBBB79012B1FD1002200231046E8
:104F5800194602F02DFE01233B6100233B7508230F
:104F68007B750123BB7507F11003184602F0CAFBD5
:104F780006233B730F237B730F23BB730123FB7340
:104F880007F10C03184602F0F1FA2037BD4680BD40
:104F98008400002080B582B000AF0346FB71FB7926
:104FA800064A52F8233001221846114601F02EFC19
:104FB800034618460837BD4680BD00BF8400002060
:104FC80080B483B000AF03463960FB7197F90730AE
:104FD800002B0BDA0D49FB7903F00F03043B3A6809
:104FE800D2B21201D2B20B441A7609E0084997F9F5
:104FF80007303A68D2B21201D2B20B4483F80023C8
:105008000C37BD465DF8047B704700BF00ED00E03B
:1050180000E100E080B582B000AF78607B68B3F152
:10502800807F01D3012311E00A4A7B6823F07F4384
:10503800013B53604FF0FF300F21FFF7C1FF054BD5
:1050480000229A60034B07221A600023184608378B
:10505800BD4680BD10E000E080B586B002AF0120FB
:10506800FFF7D2FE0020FFF7CFFE0220FFF7CCFEAD
:105078000320FFF7C9FE0020FFF7F4FE3B46184661
:10508800FFF7B2F87B680D4AA2FB03235B091846B9
:10509800FFF7C0FF0120FEF7F1FE00BFFEF700FF9B
:1050A8000346002BFAD0064B0093064B01930020D1
:1050B80005490122054B01F023F8FEE71F85EB5156
:1050C80000010020340100204832012000000020A7
:1050D80080B500AF4FF000500121FFF77BFA4FF089
:1050E80000500021FFF776FA80BD00BF80B485B07C
:1050F80000AF786039600023FB600023BB60134B6E
:105108001B68FB607B6840F6FE7202FA03F3DB4320
:10511800FA681340FB603B681A683B685B681A438F
:105128003B689B681A433B68DB681343BB607B683A
:10513800BA6802FA03F3FA681343FB60034AFB6890
:1051480013601437BD465DF8047B70470074004057
:1051580080B483B000AF78607B6800221A607B68F7
:1051680000225A607B6800229A607B680022DA601D
:105178000C37BD465DF8047B704700BF80B483B030
:1051880000AF78600B46FB70FB78002B09D00C4908
:105198000B4B1A687B68012000FA03F313430B607A
:1051A80009E00749064B1A687B68012000FA03F3F7
:1051B800DB4313400B600C37BD465DF8047B70473A
:1051C8000074004080B483B000AF78600B46FB7079
:1051D800FB78002B0AD00D490C4B5A687B681B09D9
:1051E80018460123834013434B600AE00749074BE5
:1051F8005A687B681B09184601238340DB43134028
:105208004B600C37BD465DF8047B70470074004066
:1052180080B483B000AF0346FB71FB79002B06D046
:10522800084A084B5B6843F00303536005E0054AEE
:10523800044B5B6823F0030353600C37BD465DF8ED
:10524800047B70470074004080B485B000AFF860FC
:10525800B9601346FB71FB79002B09D00C480C4B45
:105268001A68FB68B96801FA03F31343036009E09D
:105278000748074B1A68FB68B96801FA03F3DB4370
:10528800134003601437BD465DF8047B704700BFC8
:105298000074004080B485B000AF78600B467B8016
:1052A8000023FB60074BFB60FA687B6813440833F4
:1052B800FB60FB681A467B8813601437BD465DF8AF
:1052C800047B70470074004080B485B000AF7860FC
:1052D8000B467B800023FB60074BFB60FA687B680A
:1052E80013441433FB60FB681A467B881360143739
:1052F800BD465DF8047B70470074004080B485B0FB
:1053080000AF78600B467B8013463B800023FB6030
:105318000023BB607B68082B05D17B881A023B8879
:105328001343FB6004E07B881A043B881343FB604B
:10533800074BBB607A68BB6813442033BB60BB680B
:10534800FA681A601437BD465DF8047B704700BFE1
:105358000074004080B485B000AF78600023FB6023
:10536800084BFB607B689A08FB6813442C33FB608E
:10537800FB681B689BB218461437BD465DF8047B72
:10538800704700BF0074004080B483B000AF7860FD
:105398000B46FB70FB78002B0AD00D490C4B1A68A2
:1053A8007B684FF4805000FA03F313430B600AE064
:1053B8000749074B1A687B684FF4805000FA03F3DB
:1053C800DB4313400B600C37BD465DF8047B704728
:1053D8000074004080B485B000AFF860B96013462F
:1053E800FB71FB79002B09D00C480C4B1A68FB6841
:1053F800B96801FA03F31343036009E00748074B50
:105408001A68FB68B96801FA03F3DB4313400360C9
:105418001437BD465DF8047B704700BF0074004038
:1054280080B485B000AF786039600023FB730A4B05
:105438005A6B7B68396801FA03F31340002B02D0DA
:105448000123FB7301E00023FB73FB7B1846143731
:10545800BD465DF8047B70470074004080B483B09B
:1054680000AF7860396005497B683A6802FA03F34F
:105478004B630C37BD465DF8047B704700740040F1
:1054880080B485B000AF786039600023FB730023D7
:10549800BB60104B1A687B68396801FA03F3134044
:1054A800BB600C4B5A6B7B68396801FA03F31340F5
:1054B800002B05D0BB68002B02D00123FB7301E051
:1054C8000023FB73FB7B18461437BD465DF8047B4D
:1054D800704700BF0074004080B483B000AF7860AC
:1054E800396005497B683A6802FA03F34B630C3765
:1054F800BD465DF8047B70470074004080B586B0F7
:1055080000AFF860B9601346FB800023FB75FA888A
:10551800FB68C3F83C21FA88FB68C3F83821FB68AC
:10552800022283F81121FB88F8680021BA6800F08C
:1055380073FCFB7D18461837BD4680BD80B586B024
:1055480000AFF860B9601346FB800023FB75FB8849
:10555800F8680021BA6800F05FFCFB7D1846183730
:10556800BD4680BD80B586B000AFF860B96013460F
:10557800FB800023FB75FA88FB68C3F89423FA883C
:10558800FB68C3F89023FB68032283F81121FB888A
:10559800F8680021BA6800F0FDFBFB7D1846183753
:1055A800BD4680BD80B586B000AFF860B9601346CF
:1055B800FB800023FB75FB88F8680021BA6800F0BF
:1055C800E9FBFB7D18461837BD4680BD80B584B021
:1055D80000AF78600023FB737B68042283F81121F5
:1055E800786800210022002300F016FC7868FEF796
:1055F80049FAFB7B18461037BD4680BD80B584B09C
:1056080000AF78600023FB737B68052283F81121C3
:10561800786800210022002300F0BCFB7868FEF7C0
:1056280031FAFB7B18461037BD4680BD80B483B085
:1056380000AF78600B46FB70FA78796813469B00D8
:105648001344DB000B4403F562735B689BB2184696
:105658000C37BD465DF8047B704700BF80B483B04B
:1056680000AF78607B68002B23D1264B022283F899
:105678005720244B102283F85820224B002283F80D
:105688005A20204B772283F85B201E4B012283F897
:105698005C201C4B802283F861201A4B012283F87E
:1056A8006220194B4FF4C0721A60184B184A1A60DE
:1056B80023E0144B032283F85720124B182283F857
:1056C8005820104B802283F85A200E4BBB2283F8B7
:1056D8005B200C4B002283F85C200A4B202283F8C5
:1056E8006120084B012283F86220074B4FF4C072F7
:1056F8001A60064B4BF680321A600C37BD465DF8CF
:10570800047B704790000020300100202C0100200D
:105718000077010080B582B000AF78600B46FB705F
:10572800114B1B689BB2786803211A46012300F0CD
:10573800A1FA0E4B1B680E4A126810467F21002200
:1057480098470346002B01D0022308E0064B1B684C
:105758009BB278680321074A00F01CFB0023184617
:105768000837BD4680BD00BF300100205000002032
:105778002C0100207C38012080B582B000AF786011
:105788000B46FB707868032100F0CAFA064B5B6889
:10579800002098470346002B01D0022300E0002395
:1057A80018460837BD4680BD5000002080B584B03B
:1057B80000AF786039600923FB812D4BBB603B68E3
:1057C8001B7803F06003002B18D0202B4AD13B68CC
:1057D8005B78012B06D0812B09D17868396800F0F5
:1057E80041F90AE07868396800F04EF905E0786810
:1057F8003968FCF711FF022335E033E03B685B783A
:105808000A2B18D00B2B1CD0062B2BD13B685B889E
:105818001B0A9BB2212B07D1154BBB603B68DB8869
:10582800092B28BF0923FB81FB897868B9681A46C8
:10583800FFF764FE16E078680E490122FFF75EFE66
:1058480010E03B685B88DBB2032B06D83B685B88BB
:10585800DBB21A46074B1A6003E078683968FCF730
:10586800DBFE00BF002318461037BD4680BD00BFD1
:10587800A20000201006002080B582B000AF78603A
:105888000C4B1B78012B0FD10B4B1B78022B0BD128
:105898000A4B1B690A4A127810469847054B0022A2
:1058A8001A70084B00221A60002318460837BD46B4
:1058B80080BD00BF00060020080600205000002020
:1058C8003C3801200406002080B483B000AF786023
:1058D8000B46FB70002318460C37BD465DF8047B69
:1058E800704700BF80B582B000AF78600B46FB7090
:1058F800FB78032B48D1274B1B689B00264A1A4488
:10590800264B1B689A4203D8244B234A1A6006E0A8
:10591800224B1A681F4B1B681344204A1360FA78FD
:10592800F97878680B469B000B44DB00034403F5C9
:105938005C735B7A002B0CBF01230023DBB2184693
:10594800796813469B001344DB000B4403F55C7332
:1059580002465A72114B1A680E4B1B689BB2786844
:10596800032100F017FA0E4B1B68002B0CD1094BD2
:105978001B689B005B08084A1A44084B1B689A423C
:1059880002D8074B01221A60002318460837BD4683
:1059980080BD00BF300100207C3801208800002035
:1059A8000C06002080B582B000AF78600120FFF7B8
:1059B80059FA204B1B68002B34D01F4B9B681F4A99
:1059C80011681F4A126808461146012298471C4B65
:1059D8001B689B001B4A1A44184B1B689A4203D841
:1059E800164B184A1A6006E0144B1A68144B1B68C9
:1059F8001344124A1360114B1A68134B1B689A42DE
:105A080010D10D4B9B680E4A12680E4811460222AF
:105A18009847084B00221A60084B0A4A1A600A4B3A
:105A2800084A1A600120FFF735FA0023184608379C
:105A3800BD4680BD0C060020500000208C000020D0
:105A4800300100207C3801208800002080B483B019
:105A580000AF7860002318460C37BD465DF8047B1C
:105A6800704700BF80B582B000AF786039603B688E
:105A7800DB88786803491A46FFF740FD0837BD46BA
:105A880080BD00BF3C38012080B582B000AF78608F
:105A980039603B68DB88002B15D03B68DB88786869
:105AA8000A491A46FFF75EFD094B01221A703B6846
:105AB800DB881A46074B1A603B689B881B0A9BB217
:105AC800DAB2054B1A700837BD4680BD3C38012054
